:020000040800F2
:1000000040140020D9010008F93100080D30000823
:10001000F531000881080008D956000800000000EA
:1000200000000000000000000000000093380008FD
:1000300045090008000000007936000895380008DE
:10004000F3010008F3010008F3010008F3010008C0
:10005000F3010008F3010008F3010008F3010008B0
:10006000F3010008F3010008F3010008F3010008A0
:10007000F3010008F3010008F3010008F301000890
:10008000F3010008F3010008F301000831560008ED
:1000900041560008F3010008F3010008F3010008CD
:1000A000F3010008F3010008F3010008F301000860
:1000B00089390008F3010008F3010008F301000882
:1000C000F3010008F3010008F30100087D36000881
:1000D000F3010008F3010008F3010008F301000830
:1000E000F3010008F3010008F301000800F002F832
:1000F00000F062F80AA090E8000C82448344AAF160
:100100000107DA4501D100F057F8AFF2090EBAE85D
:100110000F0013F0010F18BFFB1A43F0010318473B
:10012000B4650000D46500000A444FF0000C10F8DC
:10013000013B13F0070408BF10F8014B1D1108BF65
:1001400010F8015B641E05D010F8016B641E01F805
:10015000016BF9D113F0080F1EBF10F8014BAD1C55
:100160000C1B09D16D1E58BF01F801CBFAD505E073
:1001700014F8016B01F8016B6D1EF9D59142D6D3CD
:10018000704700000023002400250026103A28BFF5
:1001900078C1FBD8520728BF30C148BF0B607047F9
:1001A000642900F09D80732900F0BF820020704711
:1001B0001FB51FBD10B510BD00F004FB1146FFF7C1
:1001C000F7FF05F092FA00F022FB03B4FFF7F2FF0D
:1001D00003BC00F029FB000009488047094800479C
:1001E000FEE7FEE7FEE7FEE7FEE7FEE7FEE7FEE7E7
:1001F000FEE7FEE704480549054A064B7047000044
:1002000031390008ED000008400E002040140020A5
:1002100040100020401000200FB41CB5074B06AA68
:100220007B4469460090059800F055FA0020694625
:1002300000F064FA1CBC5DF814FB0000D904000057
:1002400070B5044685690068C10601D5302600E016
:100250002026C00707D070BDD4E901213046904761
:10026000206A401C20626D1EF6D570BD70B5044634
:1002700085690078C00707D170BDD4E9012120202D
:100280009047206A401C20626D1EF6D570BD70B587
:100290000C460546012A05D02878800600D5EA6973
:1002A000002302E0012305E05B1C934202D2E05CE4
:1002B0000028F9D1A869E618C01AA861286A18446C
:1002C00028622846FFF7BCFF04E0D5E9012114F8B5
:1002D000010B9047B442F8D32846FFF7C7FF70BD23
:1002E0002DE9F0410646002410687529314616A50F
:1002F00010D0AFF30080002802DA404213A507E0D7
:1003000031688A0701D512A502E0490704D511A575
:10031000012401E0AFF3008000210A2206F1240746
:1003200009E0B0FBF2FCB0FBF2F302FB1C00303042
:1003300078541846491C0028F3D123462A463046F3
:10034000BDE8F04100F069B9000000002D00000098
:100350002B000000200000002DE9F0474FF0000ABC
:1003600089460446C0F820A02046E1688847002856
:1003700076D0252806D0D4E901219047206A401C78
:100380002062F1E7E168204600258847C4F81CA0F8
:1003900006460027C4F818A02A2E09D0304605F0DA
:1003A0009DF938B304EB8708303EC8F8186019E0AF
:1003B00059F8041B204604EB87029161E1688847E5
:1003C000012F064618D1E069002820DA25F0200523
:1003D0001DE0D8F8180000EB800006EB4000303834
:1003E000C8F818002046E1688847064605F076F907
:1003F0000028EED1012F0AD02E2E08D12046E16828
:1004000088477F1C0646022F45F02005C4DBA06903
:10041000002803DA404245F00105A061E80701D059
:1004200025F01005B6B1A6F14100192802D82036F2
:1004300045F400654A463146204625604D46FFF7A3
:10044000AFFE58B1012806D0ED1D25F0070000F1E0
:10045000080989E704E005F1040985E730468AE7E1
:10046000206ABDE8F08730B503461D781DB10A4605
:1004700003E0AC4201D1181A30BD12F8014B002C38
:10048000F7D15B1CF1E710B5431C02E010F8011B2B
:1004900071B18107FAD14FF0013202C88C1A8C4336
:1004A00014EAC211F9D0C01A0A0603D0C01E10BD4A
:1004B000C01A10BD0A0401D0801E10BD0902FCD074
:1004C000401E10BD40EA010370B59B072ED14FF0CE
:1004D0000136042A2AD308C810C99D1B9D43121F48
:1004E00015EAC61517D0D8B2E1B2401A50EA056134
:1004F00010D198B2A1B2401A50EA05410AD123F0B6
:100500007F4024F07F41401A50EA052102D1180EA5
:10051000A0EB146070BDA342DBD018BA21BA8842A8
:1005200001D9012070BD4FF0FF3070BD0AB9002025
:1005300070BD10F8013B11F8014B63B1A3420AD121
:10054000521E08D010F8013B11F8014B1BB1A34219
:1005500001D1521EEDD1181B70BD10B5203AC0F06C
:100560000B80B1E81850203AA0E81850B1E81850B4
:10057000A0E81850BFF4F5AF5FEA027C24BFB1E8F1
:100580001850A0E8185044BF18C918C0BDE8104062
:100590005FEA827C24BF51F8043B40F8043B08BF6B
:1005A0007047D20728BF31F8023B48BF11F8012B32
:1005B00028BF20F8023B48BF00F8012B704710B558
:1005C000044610F0030F08BF11F0030F40F0158030
:1005D0004FF0013E121FC0F20E8051F8043BA3EB16
:1005E0000E0C2CEA030C1CEACE1C08BF40F8043B9E
:1005F000F0D0A1F1040102F10402521E08DB11F84F
:10060000013B002B00F8013BF7D1114600F091F8B7
:10061000204610BD7047704770472DE9F0470D46E2
:1006200099469246044600F124080168880604D5DC
:10063000E06921F01001216000E00120A84201DD05
:10064000471B00E00027A1697A1902EB0900081A8C
:10065000A0612078C00602D42046FFF7F1FD0026F5
:1006600008E0D4E901211AF806009047206A401CEE
:10067000761C20624E45F4DB2078C0060AD5204661
:10068000FFF7DEFD06E0D4E9012130209047206A23
:10069000401C2062381EA7F10107F4DC07E0D4E912
:1006A000012118F805009047206A401C2062281E8E
:1006B000A5F10105F3DC2046FFF7D8FD2078000600
:1006C00002D50220BDE8F0870120FBE701694A1C42
:1006D00002610878704700B58FB0CDE90131002183
:1006E000059105497944CDE9031011466846FFF7A5
:1006F00033FE0FB000BD0000E5FFFFFF0A6802F8FF
:10070000010B0A60704710B5436913B1AFF3008065
:1007100001E0FFF7BCFD012010BD127800F12401BB
:100720000A7000224A700122EDE711684FF0FF3293
:10073000E9E74FF000020429C0F0128010F0030C2A
:1007400000F01B80CCF1040CBCF1020F18BF00F8C4
:10075000012BA8BF20F8022BA1EB0C0100F00DB873
:100760005FEAC17C24BF00F8012B00F8012B48BFD1
:1007700000F8012B70474FF0000200B51346944675
:100780009646203922BFA0E80C50A0E80C50B1F1E9
:100790002001BFF4F7AF090728BFA0E80C5048BFFD
:1007A0000CC05DF804EB890028BF40F8042B08BF9B
:1007B000704748BF20F8022B11F0804F18BF00F897
:1007C000012B7047754600F02BF8AE4605006946D0
:1007D000534620F00700854618B020B5FFF70AFD04
:1007E000BDE820404FF000064FF000074FF0000832
:1007F0004FF0000B21F00701AC46ACE8C009ACE8B3
:10080000C009ACE8C009ACE8C0098D46704710B516
:100810000446AFF300802046BDE81040FFF7D5BC8A
:1008200000487047E00D002001491820ABBEFEE7EC
:1008300026000200704700002DE9F04106460F46F1
:100840001546012D01DCBDE8F081002210210B4886
:1008500000F01EFA46F0800002F03CFF002404E0A5
:10086000385D02F037FF601CC4B2AC42F8DB0122F5
:100870001021024800F00CFA00BFE4E70008014034
:1008800000BFFEE70346042B15D007DC7BB1012B2C
:100890000ED0022B0DD0032B12D10BE0202B0BD04E
:1008A000212B0AD0222B09D0232B09D107E008E005
:1008B00007E006E005E004E003E002E001E000E01C
:1008C00000BF00BF002070470020704710B5002215
:1008D0000449054803F0D6F90449034803F0CBF96D
:1008E000002010BD780000207C0300207400002050
:1008F00070B504460D462146034803F0BCF9024892
:1009000003F095F9002070BD7C0300202DE9F04133
:1009100004460D4600260A48D0F81872D7F814028B
:1009200010B10120BDE8F0812A462146044803F0B9
:10093000A9F9034803F0F8F906463046F2E700004B
:100940007C030020704700BFFEE731B5002400F0B3
:10095000A5F9044600BF00F0A1F9001B00998842E8
:10096000F9D338BD2DE9F8470346002400200025BF
:100970008446002700226EE14FF0010808FA02F4D5
:10098000D1F8008008EA0400A0427DD1DFF8D0A2AF
:10099000D1F80480A8EB0A09D0453AD014DCB8F1AC
:1009A000030F50D009DCB8F1000F31D0B8F1010FBE
:1009B0001CD0B8F1020F49D120E0B8F1110F18D0C6
:1009C000B8F1120F42D11EE0B9F5881F25D006DC20
:1009D000B9F5803F20D0B9F5801F37D11AE0B9F5BD
:1009E000001F18D0B9F5041F30D117E0D1F80CC0A2
:1009F0002DE0D1F80C8008F1040C28E0D1F80C802F
:100A000008F1080C23E0D1F80C8008F10C0C1EE072
:100A100000BF00BF00BF00BF00BF00BFD1F808800B
:100A2000B8F1000F02D14FF0040C0BE0D1F80880B0
:100A3000B8F1010F03D14FF0080C1C6102E04FF038
:100A4000080C5C6103E04FF0000C00E000BF00BF49
:100A5000FF2801D8984601E003F104084646FF2824
:100A600002D84FEA820803E0A2F108084FEA88089A
:100A70004746D6F800804FF00F0909FA07F928EA2F
:100A800009080CFA07F900E088E048EA0908C6F806
:100A90000080D1F8048008F08058B8F1805F7DD1E3
:100AA00000BFDFF8C081D8F8188048F00108DFF8EF
:100AB000B491C9F81880C846D8F8188008F0010821
:100AC000CDF8008000BF00BF4FEAB9384FEA920965
:100AD00058F829504FEA82784FEA18794FF00F08FA
:100AE00008FA09F825EA0805DFF87C81434502D1B8
:100AF0004FF0000816E0DFF87481434502D14FF053
:100B000001080FE0DFF86881434502D14FF0020889
:100B100008E0DFF86081434502D14FF0030801E0AF
:100B20004FF004084FEA82794FEA197908FA09F878
:100B300048EA0505DFF840814FEA920948F8295054
:100B4000D1F8048008F48038B8F5803F0AD1DFF886
:100B50002C81D8F8008048EA0008DFF82091C9F815
:100B6000008009E0DFF81481D8F8008028EA000846
:100B7000DFF80891C9F80080D1F8048008F4003843
:100B8000B8F5003F10D1DFF8F48008F10408D8F878
:100B9000008048EA0008DFF8E49000E05AE009F13C
:100BA0000409C9F800800DE0DFF8D08008F10408DE
:100BB000D8F8008028EA0008DFF8C09009F104099D
:100BC000C9F80080D1F8048008F48018B8F5801FB7
:100BD0000ED1DFF8A88008F10808D8F8008048EAAC
:100BE0000008DFF8989009F10809C9F800800DE0C5
:100BF000DFF8888008F10808D8F8008028EA0008A3
:100C0000DFF8789009F10809C9F80080D1F804806C
:100C100008F40018B8F5001F0ED1DFF8608008F165
:100C20000C08D8F8008048EA0008DFF8509009F175
:100C30000C09C9F800800DE0DFF8408008F10C08CD
:100C4000D8F8008028EA0008DFF8309009F10C0994
:100C5000C9F80080521C102AFFF48EAEBDE8F88758
:100C6000000011100010024000080140000C01407B
:100C70000010014000140140080001400004014040
:100C8000024693680B400BB1012000E00020704742
:100C90000AB1016101E00B0403617047014800687B
:100CA00070470000C000002002480068401C014955
:100CB00008607047C000002010B50848006840F088
:100CC000100006490860032000F0AEF8002000F094
:100CD00007F800F017F8002010BD000000200240C7
:100CE00070B5044600F028FE4FF47A71B0FBF1F5C0
:100CF000284601F06CFF00222146501E00F055F8F6
:100D0000002070BD08B500BF1F48806940F0010099
:100D10001D4988610846806900F00100009000BF0D
:100D200000BF032000F080F8002211466FF00B0096
:100D300000F03BF8002211466FF00A0000F035F891
:100D4000002211466FF0090000F02FF80022114632
:100D5000501F00F02AF800221146101F00F025F85D
:100D600000221146901E00F020F800221146501E6D
:100D700000F01BF80548406820F0E06040F000708B
:100D80000249486008BD0000001002400000014018
:100D900000BF00F01F02012191404209920002F1C0
:100DA000E022C2F8001100BF70472DE9F05F8046D5
:100DB0000D461646002702F021FA074639462A4614
:100DC000334601F00700C0F1070ABAF1040F02D957
:100DD0004FF0040A01E0C0F1070AD14600F1040A0D
:100DE000BAF1070F02D24FF0000A01E0A0F1030AA6
:100DF000D4464FF0010A0AFA09FAAAF1010A0AEAEE
:100E0000020A0AFA0CFA4FF0010B0BFA0CFBABF1D9
:100E1000010B0BEA030B4AEA0B042146404602F0A1
:100E2000F5F9BDE8F09F000000BF00F00702064B97
:100E300019684FF6FF031940044B0B4343EA0221A4
:100E4000014B196000BF70470CED00E00000FA058F
:100E500070B505460C46002104F08000802806D1BC
:100E600004F07F0605F1280000EB461103E005F5CC
:100E7000027000EB44111AB9002088728B8004E0E4
:100E800001208872CB80180C0881002070BD70474B
:100E900070B504460D4604F1280101EB45114A697D
:100EA0002946D4F81C0403F001FA70BD70B504465D
:100EB0000D4604F5027101EB45114A692946D4F843
:100EC0001C0403F060FA70BD70B504460D460026A0
:100ED00005F08000802806D105F07F0104F128008C
:100EE00000EB411605E005F07F0104F5027000EB10
:100EF000411605F07F00307005F08000C009707069
:100F000000BF94F8E803012801D1022070BD012040
:100F100084F8E80300BF3146206804F01EF800BFE3
:100F2000002084F8E80300BF00BFEFE770B5044677
:100F30000D46002605F08000802806D105F07F01CF
:100F400004F1280000EB411603E004F5027000EB09
:100F500045160020B07005F07F003070C5F3C0105A
:100F6000707000BF94F8E803012801D1022070BD21
:100F7000012084F8E80300BF3146206804F016F928
:100F800000BF002084F8E80300BF00BFEFE702467F
:100F900001F07F0302F5027000EB4310808B80B2FA
:100FA00070472DE9F04704460D46174698464FF026
:100FB0000009002605F08000802806D105F07F0199
:100FC00004F1280000EB411605E005F07F0104F56F
:100FD000027000EB411605F07F00307005F08000D4
:100FE000C0097070376186F8038000BF94F8E80389
:100FF000012802D10220BDE8F087012084F8E8032F
:1010000000BF3146206803F0CFFD00BF002084F808
:10101000E80300BF4846EEE72DE9F04104460E46DE
:1010200017469846002506F07F0104F5027000EB94
:1010300041156F61C5F818800020E861687006F0FE
:101040007F00287000BF94F8E803012802D1022035
:10105000BDE8F081012084F8E80300BF06F07F00BE
:1010600020B92946206804F03EF903E029462068AB
:1010700004F039F900BF002084F8E80300BF00BF86
:10108000E6E770B504460D46002605F0800080288E
:1010900006D105F07F0104F1280000EB411603E0C2
:1010A00004F5027000EB45160120B07005F07F00DA
:1010B0003070C5F3C010707000BF94F8E8030128C9
:1010C00001D1022070BD012084F8E80300BF314641
:1010D000206804F0C5F805F07F0020B904F57B71A5
:1010E000206804F060F800BF002084F8E80300BF27
:1010F00000BFE7E72DE9F04104460E461746984643
:10110000002506F07F0104F1280000EB41156F6116
:10111000C5F818800020E8610120687006F07F00A3
:10112000287000BF94F8E803012802D10220BDE82E
:10113000F081012084F8E80300BF06F07F0020B9A9
:101140002946206804F0CFF803E02946206804F01F
:10115000CAF800BF002084F8E80300BF00BFE6E73C
:1011600070B504460025206804F072FA00F40040CF
:10117000B0F5004F02D1204602F05CF8206804F080
:1011800067FA00F48060B0F5806F0ED12068B0F887
:10119000440020F480602168A1F84400204600F05B
:1011A00049F90021204600F068F9206804F050FA5F
:1011B00000F48040B0F5804F07D12068B0F84400BB
:1011C00020F480402168A1F84400206804F040FA2F
:1011D00000F40050B0F5005F07D12068B0F844007B
:1011E00020F400502168A1F84400206804F030FA8F
:1011F00000F48050B0F5805F17D12068B0F840004F
:1012000020F004002168A1F840004FF43D4520681B
:10121000A0F84050204600F022F92068B0F84400C1
:1012200020F480502168A1F84400206804F010FAEE
:1012300000F40060B0F5006F20D12068B0F84400E1
:1012400020F400602168A1F844002068B0F8400054
:1012500040F008002168A1F840002068B0F8400084
:1012600040F004002168A1F84000206804F0F0F983
:10127000C0F3003010B9204600F042F9206804F0B5
:10128000E7F900F40070B0F5007F0AD12068B0F8EB
:10129000440020F400702168A1F84400204600F0CA
:1012A000E5F8206804F0D4F900F48070B0F5807F90
:1012B00007D12068B0F8440020F480702168A1F8BC
:1012C000440070BD30B585B00446002514B9012036
:1012D00005B030BD94F8E90328B9002084F8E8038C
:1012E000204600F07DF8032084F8E903206803F02D
:1012F0004FFF142204F110016846FFF72EF994E81D
:101300000F0003F026FE0021206804F0BAF9002542
:1013100025E0012104F1280000EB4510417004F1A3
:10132000280000EB4510057004F1280000EB451083
:101330008581002104F1280000EB4510C17004F103
:10134000280000EB4510016104F1280000EB451076
:10135000416104F1280000EB451081616D1C0F2DE7
:10136000D7D3002524E0002104F5027000EB4510DE
:10137000417004F5027000EB4510057004F128007F
:1013800000EB4510858104F5027000EB4510C1703B
:1013900004F5027000EB4510016104F5027000EBEA
:1013A0004510416104F5027000EB451081616D1C30
:1013B0000F2DD8D3142204F110016846FFF7CDF8A1
:1013C00094E80F0003F0D9FE002084F824000120E7
:1013D00084F8E903206803F0CDFE002078E70000E0
:1013E00038B504461149206888421DD100BF104815
:1013F000C06940F400000E49C8610846C06900F4A5
:101400000000009000BF00BF002211461320FFF72C
:10141000CCFC1320FFF7BCFC002211461420FFF780
:10142000C4FC1420FFF7B4FC38BD0000005C004091
:101430000010024070B504460125A068022801D1C1
:1014400000BF01E0012500BF00BF2946D4F81C04FD
:1014500003F0DEF8D4F81C0403F0A0F870BD10B55A
:101460000446D4F81C0403F0BBF810BD10B50446C4
:10147000D4F81C0403F0BBF810BD70B504460D464B
:1014800000BF94F8E803012801D1022070BD0120BB
:1014900084F8E80300BF84F824502946206804F04B
:1014A000F3F800BF002084F8E80300BF00BFEDE7B9
:1014B00010B5044604F57B71D4F81C0403F0CEF893
:1014C00010BD10B5044600BF94F8E803012801D10F
:1014D000022010BD012084F8E80300BF012120464E
:1014E000FFF7D5FC206803F042FE206804F094F872
:1014F00000BF002084F8E80300BF00BFE9E7000058
:1015000010B50446D4F81C0403F01FF9A06928B1F3
:101510000348006840F006000149086010BD000063
:1015200010ED00E0F8B5044600260025207800F014
:101530000100002877D000BF5648C06940F08050B5
:101540005449C8610846C06900F08050009000BF4F
:1015500000BF5148006840F480704F490860FFF7B1
:101560009DFB064606E0FFF799FB801B642801D926
:101570000320F8BD4848006800F480700028F2D0CD
:101580004448006A00F44075002D5ED0A08800F445
:101590004070A84259D03F48006A20F440750120AD
:1015A000010491FAA1F1B1FA81F13C4A02EB810107
:1015B000C1F8000400204FF4803191FAA1F1B1FA92
:1015C00081F102EB8101C1F800043248056205F0A7
:1015D000010048B3FFF762FB064608E0FFF75EFB39
:1015E000801B41F28831884201D90320C1E74020A5
:1015F000022191FAA1F1B1FA81F108430121B1EB85
:10160000601F02D12348006811E04020022191FAB6
:10161000A1F1B1FA81F108430221B1EB601F04D1BD
:101620001C48006A03E018E00FE01A48406A4021B5
:10163000022292FAA2F2B2FA82F2114301F01F02E0
:101640000121914008400028C8D01248006A20F4C7
:101650004070616808430F490862207800F002007A
:10166000022807D10B48406820F44040A168084395
:1016700008494860207800F01000102807D105487C
:10168000406820F48000E168084302494860002077
:101690006FE700000010024000700040000042426E
:1016A00070B504460D4600269F48006800F007000C
:1016B000A8420ED29C48006820F0070028439A49AF
:1016C00008600846006800F00700A84201D0012029
:1016D00070BD207800F00200022807D193484068CE
:1016E00020F0F000A168084390494860207800F09D
:1016F000010000287CD0606801282DD12020010342
:1017000091FAA1F1B1FA81F108430121B1EB601F17
:1017100002D1864800680FE02020010391FAA1F170
:10172000B1FA81F108430221B1EB601F02D17F4879
:10173000006A01E07D48406A20210A0392FAA2F281
:10174000B2FA82F2114301F01F02012191400840D8
:10175000002860D10120BBE7606802282CD120203E
:10176000010591FAA1F1B1FA81F108430121B1EB30
:10177000601F02D16D4800680FE02020010591FA3A
:10178000A1F1B1FA81F108430221B1EB601F02D14E
:101790006648006A01E06548406A20210A0592FA1D
:1017A000A2F2B2FA82F2114301F01F02012191402C
:1017B000084078BB01208BE72020022191FAA1F19B
:1017C000B1FA81F108430121B1EB601F02D1574802
:1017D000006810E02020022191FAA1F1B1FA81F114
:1017E00008430221B1EB601F03D15048006A02E0B8
:1017F00054E04E48406A2021022292FAA2F2B2FA44
:1018000082F2114301F01F0201219140084008B902
:1018100001205DE7FFE74548406820F0030061686C
:10182000084342494860FFF739FA064660680128D4
:1018300010D108E0FFF732FA801B41F2883188426C
:1018400001D9032044E73948406800F00C0004281F
:10185000F0D123E06068022810D108E0FFF71EFAFB
:10186000801B41F28831884201D9032030E72F489C
:10187000406800F00C000828F0D10FE008E0FFF706
:101880000DFA801B41F28831884201D903201FE7FD
:101890002648406800F00C000028F0D1224800687B
:1018A00000F00700A8420ED91F48006820F007008A
:1018B00028431D4908600846006800F00700A84258
:1018C00001D0012004E7207800F00400042807D1AB
:1018D0001648406820F4E060E16808431349486016
:1018E000207800F00800082808D11048406820F44B
:1018F0006050216940EAC1000C49486000F022F8BC
:101900000A49496801F0F001F02292FAA2F2B2FA13
:1019100082F2D140064A515CC84006490860002066
:10192000FFF7DEF90020D3E600200240001002405D
:1019300054660008700000200148006870470000ED
:1019400070000020F0B585B00FF28C0C9CE8E01020
:1019500001A8A0E8E01024A52D680095002100242E
:10196000002200230020214D696801F00C056DB3B1
:10197000042D02D0082D28D101E01D4828E001F4F3
:1019800070154FF4701696FAA6F6B6FA86F6F5407C
:1019900001AE735D01F4803595B1144D6D6805F4A9
:1019A00000354FF4003696FAA6F6B6FA86F6F540FC
:1019B0001DF805400E4DB5FBF4F505FB03F202E002
:1019C0000C4D03FB05F2104602E000BF084800BFC3
:1019D00000BF05B0F0BD00000203040506070809BA
:1019E0000A0B0C0D0E0F1010010200000010024037
:1019F00000127A0000093D0038B504460025207821
:101A000000F0010000287CD0F848406800F00C008D
:101A100004280CD0F548406800F00C00082837D1A5
:101A2000F248406800F48030B0F5803F30D120208B
:101A3000010391FAA1F1B1FA81F108430121B1EB5F
:101A4000601F02D1E94800680FE02020010391FAED
:101A5000A1F1B1FA81F108430221B1EB601F02D17B
:101A6000E248006A01E0E148406A20210A0392FA54
:101A7000A2F2B2FA82F2114301F01F020121914059
:101A800008400028BFD0606800283AD1012038BD46
:101A900000BF6068B0F5803F06D1D448006840F4CC
:101AA0008030D249086028E0606858B9CF480068A3
:101AB00020F48030CD4908600846006820F480207A
:101AC00008601AE06068B0F5A02F0BD1C748006825
:101AD00040F48020C54908600846006840F4803022
:101AE00008600AE0C148006820F48030BF490860FF
:101AF0000846006820F48020086000BF6068C8B312
:101B000000E06FE0FFF7CAF8054606E0FFF7C6F809
:101B1000401B642801D90320B9E72020010391FA72
:101B2000A1F1B1FA81F108430121B1EB601F02D1AB
:101B3000AE4800680FE02020010391FAA1F1B1FA4C
:101B400081F108430221B1EB601F02D1A748006A6E
:101B500001E0A648406A20210A0392FAA2F2B2FAF2
:101B600082F2114301F01F02012191400840002838
:101B7000CCD037E0FFE7FFF791F8054606E0FFF726
:101B80008DF8401B642801D9032080E72020010341
:101B900091FAA1F1B1FA81F108430121B1EB601F83
:101BA00002D1924800680FE02020010391FAA1F1D0
:101BB000B1FA81F108430221B1EB601F02D18B48D9
:101BC000006A01E08948406A20210A0392FAA2F2E1
:101BD000B2FA82F2114301F01F0201219140084044
:101BE0000028CCD1207800F0020002284ED17F4896
:101BF000406800F00C0050B17C48406800F00C00D8
:101C0000082844D17948406800F4803078BB20200F
:101C1000022191FAA1F1B1FA81F108430121B1EB5E
:101C2000601F02D1714800680FE02020022191FA64
:101C3000A1F1B1FA81F108430221B1EB601F02D199
:101C40006A48006A01E06948406A2021022292FA4B
:101C5000A2F2B2FA82F2114301F01F020121914077
:101C6000084028B12069012802D001200FE70EE0CA
:101C70005E48006820F0F800F82292FAA2F2B2FA68
:101C800082F26169914008435849086091E02069F7
:101C9000F0B3012090FAA0F1B1FA81F1544A42F870
:101CA0002100FEF7FBFF054606E0FEF7F7FF401BAD
:101CB000022801D90320EAE62020022191FAA1F1AD
:101CC000B1FA81F108430121B1EB601F02D147480D
:101CD00000680FE02020022191FAA1F1B1FA81F110
:101CE00008430221B1EB601F02D14048006A01E0C5
:101CF0003E48406A2021022292FAA2F2B2FA82F20F
:101D0000114301F01F02012191400840002800E02A
:101D10000FE0CAD03548006820F0F800F82292FAA7
:101D2000A2F2B2FA82F26169914008432F49086039
:101D30003FE00020012191FAA1F1B1FA81F12C4A92
:101D400042F82100FEF7AAFF054606E0FEF7A6FFCF
:101D5000401B022801D9032099E62020022191FA94
:101D6000A1F1B1FA81F108430121B1EB601F02D169
:101D70001E4800680FE02020022191FAA1F1B1FA7B
:101D800081F108430221B1EB601F02D11748006ABC
:101D900001E01648406A2021022292FAA2F2B2FA29
:101DA00082F2114301F01F020121914008400028F6
:101DB000CCD1207800F0080008284BD1A069A8B346
:101DC000012191FAA1F0B0FA80F0094A02EB8000FB
:101DD000C0F88014FEF762FF05460BE0FEF75EFFD9
:101DE000401B022806D9032051E6000000100240E3
:101DF000000042426020022191FAA1F1B1FA81F182
:101E000008430121B1EB601F02D1F948006810E0DE
:101E10006020022191FAA1F1B1FA81F10843022177
:101E2000B1EB601F03D1F248006A02E013E0F04812
:101E3000406A6021022292FAA2F2B2FA82F21143BF
:101E400001F01F020121914008400028C6D0012066
:101E5000FEF77BFD41E00020012191FAA1F1B1FAEA
:101E600081F1E44A02EB8101C1F88004FEF716FF1C
:101E7000054606E0FEF712FF401B022801D90320A9
:101E800005E66020022191FAA1F1B1FA81F108433F
:101E90000121B1EB601F02D1D54800680FE060203E
:101EA000022191FAA1F1B1FA81F108430221B1EBCB
:101EB000601F02D1CE48006A01E0CD48406A60212F
:101EC000022292FAA2F2B2FA82F2114301F01F0248
:101ED0000121914008400028CCD1207800F0040076
:101EE000042875D100BFC248C06940F08050C04985
:101EF000C8610846C06900F08050009000BF00BF74
:101F0000BD48006840F48070BB490860FEF7C6FE1B
:101F1000054606E0FEF7C2FE401B642801D90320F7
:101F2000B5E5B548006800F480700028F2D000BF25
:101F3000E068012806D1AE48006A40F00100AC49D3
:101F4000086227E0E06858B9A948006A20F001005B
:101F5000A74908620846006A20F00400086219E0F8
:101F6000E06805280BD1A248006A40F00400A049AF
:101F700008620846006A40F0010008620AE09C48D6
:101F8000006A20F001009A4908620846006A20F0C1
:101F90000400086200BFE068D0B3FEF77FFE05468C
:101FA00008E0FEF77BFE401B41F28831884201D9F0
:101FB00003206CE54020022191FAA1F1B1FA81F1F0
:101FC00008430121B1EB601F03D18948006810E08C
:101FD00058E04020022191FAA1F1B1FA81F10843C1
:101FE0000221B1EB601F02D18148006A01E0804804
:101FF000406A4021022292FAA2F2B2FA82F211431E
:1020000001F01F020121914008400028C9D039E0A9
:10201000FFE7FEF743FE054608E0FEF73FFE401BE4
:1020200041F28831884201D9032030E54020022165
:1020300091FAA1F1B1FA81F108430121B1EB601FDE
:1020400002D16B4800680FE04020022191FAA1F113
:10205000B1FA81F108430221B1EB601F02D164485B
:10206000006A01E06248406A4021022292FAA2F22C
:10207000B2FA82F2114301F01F020121914008409F
:102080000028CAD1E069002873D05948406800F0A0
:102090000C0008286ED0E06902286CD100204FF0B7
:1020A000807191FAA1F1B1FA81F1524A42F821000E
:1020B000FEF7F4FD054606E0FEF7F0FD401B0228A2
:1020C00001D90320E3E42020010591FAA1F1B1FA3E
:1020D00081F108430121B1EB601F02D1444800683F
:1020E0000FE02020010591FAA1F1B1FA81F1084336
:1020F0000221B1EB601F02D13D48006A01E03C487B
:10210000406A20210A0592FAA2F2B2FA82F2114341
:1021100001F01F020121914008400028CCD1206A23
:10212000B0F5803F07D13248406820F40030A16804
:1021300008432F494860D4E9080108432C494968FD
:1021400021F4741108432A4948600121080690FAD5
:10215000A0F0B0FA80F0274A42F82010FEF79EFD6A
:10216000054609E0FEF79AFD401B022804D903202A
:102170008DE479E076E02CE02020010591FAA1F1D0
:10218000B1FA81F108430121B1EB601F02D1184877
:1021900000680FE02020010591FAA1F1B1FA81F168
:1021A00008430221B1EB601F02D11148006A01E02F
:1021B0000F48406A20210A0592FAA2F2B2FA82F28E
:1021C000114301F01F020121914008400028C9D0AD
:1021D0004AE000204FF0807191FAA1F1B1FA81F14B
:1021E000044A42F82100FEF759FD05460DE00000C3
:1021F000001002400000424200700040FEF74EFD19
:10220000401B022801D9032041E42020010591FA56
:10221000A1F1B1FA81F108430121B1EB601F02D1B4
:10222000124800680FE02020010591FAA1F1B1FAEF
:1022300081F108430221B1EB601F02D10B48006A13
:1022400001E00A48406A20210A0592FAA2F2B2FA95
:1022500082F2114301F01F02012191400840002841
:10226000CCD101E0012012E4002010E40010024073
:10227000704738B5044620684068C0F3801068B1E4
:102280002068806800F0010040B120688068C0F3D9
:10229000801018B92046A16C884738BD2068406876
:1022A000C0F3C01040B120688068C0F3400018B18E
:1022B0002046E16C8847F0E720684068C0F3401092
:1022C000002846D020688068C0F3001038B1606DE7
:1022D00040F0020060656FF010002168886020689F
:1022E0008068C0F3401080B1606D40F0010060650F
:1022F00000BF2068806800902068006820F04000DF
:1023000021680860009000BF00BF20688068C0F3AB
:10231000801080B194F8510012280CD0606D40F00C
:102320000400606500BF2068C06800902068806875
:10233000009000BF00BF606D58B12068406820F079
:10234000E00021684860012084F851002046FFF732
:102350008FFF00BFA1E7000010B504460CB90120B3
:1023600010BD94F8510010B9204600F03BF802204F
:1023700084F851002068006820F04000216808605F
:10238000D4E901010843E168084321690843616910
:102390000843218B01F400710843E1690843216A75
:1023A0000843A16A0843216808600421A06901EA82
:1023B0001040616A0843216848602168E06A08614A
:1023C0002068C06920F400602168C86100200449C9
:1023D00008706065012084F851000020C0E700000B
:1023E000C400002010B586B0044617492068884212
:1023F00028D100BF1548806940F480501349886196
:102400000846806900F48050019000BF00BFA02002
:102410000290022003900320059002A90C48FEF7C9
:10242000A1FA4020029000200390049002A90848DD
:10243000FEF798FA002211462320FEF7B6FC23206F
:10244000FEF7A6FC06B010BD0030014000100240AF
:10245000000801402DE9FC4104460E4615461F4682
:102460000020019094F8510001287BD106B115B9E4
:102470000120BDE8FC8100BF94F85000012801D183
:102480000220F6E7012084F8500000BF222084F8E3
:10249000510000206065A663A587E587A064E0641D
:1024A0002063A086E086A068B0F5004F05D12068C3
:1024B000006820F4804021680860A06AB0F5005FE1
:1024C0000DD100BF2068006820F40050216808602A
:1024D0002068006840F400502168086000BF606810
:1024E000B0F5827F0ED1A06860B900BF002084F8EB
:1024F000500000BF2B46324631462046009700F080
:10250000AFF9B6E72068006800F04000402805D029
:102510002068006840F0400021680860E06810BB57
:1025200012E03B4600220121204601F028F908B1C3
:1025300003209EE72068C068C1B2A26B501CA06354
:102540001170E08F401EE087E08F0128E9DCA06A6F
:10255000B0F5005F28D12068006840F48050216801
:10256000086021E09AE012E03B460022012120466B
:1025700001F005F908B103207BE72068C068A16B72
:102580000880A06B801CA063E08F401EE087E08F76
:102590000128E9DCA06AB0F5005F05D12068006879
:1025A00040F48050216808603B460022012120460B
:1025B00001F0E5F808B103205BE7E06838B920686E
:1025C000C068C1B2A26B501CA063117006E0206805
:1025D000C068A16B0880A06B801CA063E08F401EC8
:1025E000E087A06AB0F5005F12D13B4600220121CE
:1025F000204601F0C4F828B1606D40F0020060652B
:10260000032036E72068C06880B20190BDF804005E
:102610006068B0F5827F0DD1A068B0F5004F03D09F
:10262000A068B0F5806F05D12068006820F04000F8
:1026300021680860012084F85100A06AB0F5005FAD
:1026400026D120688068C0F3001008B3204601F04E
:1026500093F8012818D1606D40F00200606500BF5A
:102660002068006820F40050216808602068006835
:1026700040F400502168086000BF00BF002084F8CB
:10268000500000BF0120F4E66FF010002168886060
:1026900000BF002084F8500000BFEAE60220E8E610
:1026A000F8B504460E4615461F4694F85100012819
:1026B00074D106B10DB90120F8BD00BF94F85000E7
:1026C000012801D10220F7E7012084F8500000BF63
:1026D000122084F85100002060652663A586E586F7
:1026E000E064A064A063A087E087A06AB0F5005F03
:1026F0000DD100BF2068006820F4005021680860F8
:102700002068006840F400502168086000BFA0689D
:10271000B0F5004F05D12068006840F48040216882
:1027200008602068006800F04000402805D020685C
:10273000006840F0400021680860E06878BB60688D
:1027400010B1E08E012808D1216B481C2063087865
:102750002168C860E08E401EE08611E03B46002202
:102760000221204601F00BF808B10320A4E7216BF9
:10277000481C206308782168C860E08E401EE0860F
:10278000E08E0028EADCA06AB0F5005F38D120684E
:10279000006840F480502168086031E05EE0FFE7A7
:1027A000606810B1E08E012809D1206B0088216893
:1027B000C860206B801C2063E08E401EE08612E023
:1027C0003B4600220221204600F0D9FF08B1032039
:1027D00072E7206B00882168C860206B801C206332
:1027E000E08E401EE086E08E0028E9DCA06AB0F5AD
:1027F000005F05D12068006840F4805021680860BF
:102800003B4600220221204600F0B9FF28B1606D4E
:1028100040F01000606503204EE73B460122802116
:10282000204600F0ACFF28B1606D40F010006065FC
:10283000032041E7A06840B900BF2068C06800904D
:1028400020688068009000BF00BF012084F851001C
:1028500000BF002084F8500000BF2DE702202BE7C6
:102860002DE9F84304460E4617461D46DDF8208044
:102870000020009094F85100012803D094F85100F2
:10288000222876D10EB107B115B90120BDE8F88331
:1028900000BF94F85000012801D10220F6E7012082
:1028A00084F8500000BF94F85100012802D1322072
:1028B00084F8510000206065A763A587E58726633B
:1028C000A586E586A064E064A06AB0F5005F0DD13E
:1028D00000BF2068006820F400502168086020686C
:1028E000006840F400502168086000BF206800685C
:1028F00000F04000402805D02068006840F040000B
:1029000021680860E068B0F5006F75D1606830B18B
:102910006068B0F5827F0CD1E08E012809D1206B70
:1029200000882168C860206B801C2063E08E401EF8
:10293000E086E08EF0B9A06AB0F5005F05D12068AE
:10294000006840F48050216808604346002201215D
:10295000204600F014FF08B1032097E72068C06804
:10296000A16B0880A06B801CA063E08F401EE087F5
:10297000C7E015E131E0434600220221204600F085
:10298000FEFE08B1032081E7206B00882168C86043
:10299000206B801C2063E08E401EE086E08E48B9EC
:1029A000A06AB0F5005F05D12068006840F480504F
:1029B00021680860434600220121204600F0DFFE26
:1029C00008B1032062E72068C068A16B0880A06B93
:1029D000801CA063E08F401EE087E08E0028CADCE8
:1029E00060680028C4D1434600220121204600F03F
:1029F000C6FE10B1032049E70AE02068C068A16B59
:102A00000880A06B801CA063E08F401EE08778E008
:102A1000606830B16068B0F5827F0BD1E08E01282C
:102A200008D1216B481C206308782168C860E08EBB
:102A3000401EE086E08ED0B9A06AB0F5005F05D1F7
:102A40002068006840F480502168086043460022F6
:102A50000121204600F093FE08B1032016E720680C
:102A6000C068A16B0870E08F401EE08749E030E04D
:102A7000434600220221204600F081FE08B10320D7
:102A800004E7216B481C206308782168C860E08E49
:102A9000401EE086E08E48B9A06AB0F5005F05D11F
:102AA0002068006840F48050216808604346002296
:102AB0000121204600F063FE08B10320E6E620680D
:102AC000C068C1B2A26B501CA0631170E08F401EA1
:102AD000E087E08E0028CBDC606890B94346002296
:102AE0000121204600F04BFE08B10320CEE620680D
:102AF000C068C1B2A26B501CA0631170E08F401E71
:102B0000E087A06AB0F5005F12D1434600220121A0
:102B1000204600F034FE28B1606D40F00200606590
:102B20000320B3E62068C06880B20090BDF80000C2
:102B3000434601228021204600F021FE28B1606D2D
:102B400040F0100060650320A0E6012084F85100E9
:102B5000A06AB0F5005F1DD120688068C0F3001046
:102B6000C0B1606D40F00200606500BF2068006881
:102B700020F40050216808602068006840F400508C
:102B80002168086000BF00BF002084F8500000BF2B
:102B900001207BE600BF002084F8500000BF75E6EE
:102BA000022073E6042808D14FF0E021096941F0C2
:102BB00004014FF0E022116107E04FF0E0210969C4
:102BC00021F004014FF0E02211617047704770B5A9
:102BD00004462546681EB0F1807F01D301200FE036
:102BE000681E4FF0E02148610F214FF0FF3000F0E8
:102BF0000DFB00204FF0E0218861072008610020D4
:102C000070BD10B5FFF7E2FF10BD70477047024678
:102C100000BF92F83800012801D10220704701203E
:102C200082F8380000BF022082F83900106840683E
:102C300020F0700013685860106840680B681843F3
:102C4000136858601068806820F0800013689860EE
:102C5000106880684B68184313689860012082F8F8
:102C6000390000BF002082F8380000BF00BFD5E760
:102C700010B504460CB9012010BD94F8390028B9EC
:102C8000002084F83800204600F00CF8022084F878
:102C90003900211D206800F07FFE012084F83900F2
:102CA0000020E9E738B504462068B0F1804F15D11F
:102CB00000BF0B48C06940F001000949C8610846DF
:102CC000C06900F00100009000BF00BF0022114663
:102CD0001C20FEF76AF81C20FEF75AF838BD0000E9
:102CE0000010024001460868C06840F001000A6810
:102CF000D0600868006840F001000A681060002099
:102D0000704701460868C06820F001000A68D0607A
:102D100000BF0868006A41F21112104050B90868FB
:102D2000006A9210104028B90868006820F001007D
:102D30000A68106000BF002070472DE9F04104468A
:102D40000D46002600BF94F83800012802D1022069
:102D5000BDE8F081012084F8380000BF022084F82B
:102D600039002068866826F0770626F47F462068BA
:102D70008660286850283BD00CDC202860D004DC1A
:102D8000002853D0102865D155E030285DD0402868
:102D900060D141E0602835D070280DD0B0F5805F5B
:102DA00003D0B0F5005F55D115E02068806820F0B1
:102DB0000700216888604EE0D5E902136A68206840
:102DC00000F020FE2068866826F0770646F0770639
:102DD000206886603FE0D5E902136A68206800F049
:102DE00011FE2068806840F480402168886032E0ED
:102DF000EA686968206800F01BFE5021206800F036
:102E00000DFE28E0EA686968206800F026FE60216F
:102E1000206800F003FE1EE0EA686968206800F0A0
:102E200007FE4021206800F0F9FD14E00021206831
:102E300000F0F4FD0FE01021206800F0EFFD0AE043
:102E40002021206800F0EAFD05E03021206800F034
:102E5000E5FD00E000BF00BF012084F8390000BF9D
:102E6000002084F8380000BF00BF71E7704710B53C
:102E7000044620680069C0F34000D8B12068C068EB
:102E8000C0F34000B0B16FF002002168086101207A
:102E900020762068806900F0030018B12046FFF713
:102EA000E5FF05E0204600F0ADF8204600F0ABF865
:102EB0000020207620680069C0F38000D8B1206827
:102EC000C068C0F38000B0B16FF0040021680861F1
:102ED000022020762068806900F4407018B12046F6
:102EE000FFF7C4FF05E0204600F08CF8204600F014
:102EF0008AF80020207620680069C0F3C000D8B1AD
:102F00002068C068C0F3C000B0B16FF0080021684D
:102F10000861042020762068C06900F0030018B121
:102F20002046FFF7A3FF05E0204600F06BF820469F
:102F300000F069F80020207620680069C0F30010D6
:102F4000D8B12068C068C0F30010B0B16FF01000B5
:102F500021680861082020762068C06900F440706C
:102F600018B12046FFF782FF05E0204600F04AF83E
:102F7000204600F048F8002020762068006900F024
:102F8000010058B12068C06800F0010030B16FF056
:102F9000010021680861204600F036F820680069C9
:102FA000C0F3C01058B12068C068C0F3C01030B181
:102FB0006FF08000216808612046FFF726FE206838
:102FC0000069C0F3801058B12068C068C0F3801059
:102FD00030B16FF0400021680861204600F015F81C
:102FE00020680069C0F3401058B12068C068C0F381
:102FF000401030B16FF02000216808612046FFF7D3
:1030000005FE10BD704770477047704700BFFEE770
:1030100000B585B000BF3B48806940F010003949D9
:1030200088610846806900F01000009000BF00BF72
:1030300000BF0846806940F020008861084680692A
:1030400000F02000009000BF00BF00BF084680696C
:1030500040F0040088610846806900F00400009098
:1030600000BF00BF00BF0846806940F008008861CB
:103070000846806900F00800009000BF00BF0022F1
:103080004FF400512048FDF703FE00221E211F4887
:10309000FDF7FEFD00224FF400711D48FDF7F8FD1D
:1030A000002220211A48FDF7F3FD4FF40050019053
:1030B000012002900220049001A91348FDF752FC60
:1030C0001E200190012002900220049001A90F48C7
:1030D000FDF748FC4FF4007001900120029002209F
:1030E000049001A90A48FDF73DFC20200190012031
:1030F00002900220049001A90548FDF733FC05B0B9
:1031000000BD000000100240001001400008014016
:10311000000C014010B50E480E4908604FF4827053
:10312000486000210B488160C160016141614FF43A
:10313000007181611021C1610021016241628162DF
:103140000A21C162FFF708F908B1FDF7FCFB10BDC9
:1031500000300140DC01002000B587B00020039062
:10316000049005900690019002904FF08040134922
:103170000860472048600021104881604FF6FF71C9
:10318000C16000210161FFF773FD08B1FDF7DBFBB2
:103190004FF48050039003A90848FFF7CEFD08B113
:1031A000FDF7D1FB00200190029001A90348FFF731
:1031B0002EFD08B1FDF7C7FB07B000BD34020020AB
:1031C00010B500220749084801F013F807490648DE
:1031D00001F00AFB0649044800F046FD024801F0F0
:1031E000CBFB10BD8C0000207C030020D40000200D
:1031F0007C00002000BFFEE7704700000248006826
:10320000C0F30220704700000CED00E010B500286C
:1032100007DA0A07140E054A00F00F031B1FD454E7
:1032200003E00A07130E024A135410BD18ED00E024
:1032300000E400E02DE9FC410546002400270026BB
:103240000020019000900CE2BDF8040000F00F0691
:10325000002E7DD1BDF8040000F0100088BB286866
:10326000008848F60F7108402968088005F1280495
:103270002868B0F85010207801EBC000801C296845
:1032800001F5806131F81000C0F30900E061E169E7
:1032900060690844606100212846FDF7F9FD95F852
:1032A00024000028CFDDA0690028CCD195F82400A7
:1032B00040F080002968A1F84C00002085F8240027
:1032C000CFE1FFE705F50274286800880090BDF89B
:1032D000000000F4006018B32868B0F8501020789F
:1032E00001EBC000801D296801F5806131F81000F4
:1032F000C0F30900E061A18B8BB2A28805F57B7158
:10330000286802F0AAF928680088C0F30E0048F681
:103310008F710840296808802846FEF7C9F8A0E1A7
:10332000BDF8000000F4004000288CD02868008818
:10333000C0F30E0048F68F7108402968088028689D
:10334000B0F85010207801EBC000801D296800E023
:1033500055E001F5806131F81000C0F30900E0612B
:10336000E06960B1B4F81CC01FFA8CF3A2886169EF
:10337000286802F072F9E16960690844606100211F
:103380002846FDF793FD2A6802F580622868B0F8A8
:103390005000801D02EB400122693E2A10D92269AB
:1033A000C2F34F10227C02F01F020AB9421E90B2F3
:1033B0004FF6FF7202EA802242F400420A600DE0FA
:1033C0002269C2F34F00227C02F001020AB1421CC2
:1033D00090B24FF6FF7202EA80220A6029680988DB
:1033E0004BF68F7201EA020080F4805080F40050A6
:1033F00040F4004141F080012A68118031E1710000
:10340000286830F811000090BDF8000000F400407A
:1034100000287CD07100286830F81100C0F30E003D
:1034200048F68F7108407200296821F8120005F5EE
:10343000027000EB4614A07AA8B92868B0F85010C2
:10344000207801EBC000801D296801F5806131F80A
:103450001000C0F30907EFB3A28861693B462868F2
:1034600002F0FBF844E021784900286830F81100A8
:1034700000F48040A8B12868B0F85010207801EB23
:10348000C000801C296801F5806131F81000C0F38C
:103490000907DFB1E28861693B46286802F0DDF880
:1034A00014E02868B0F85010207801EBC000801DAF
:1034B000296801F5806131F81000C0F309072FB1C8
:1034C000228961693B46286802F0C7F821784900E3
:1034D000286800E00CE030F8110048F68F710840D1
:1034E00048F2C001084322785200296821F81200EE
:1034F000E0693844E061606938446061A06910B1F6
:103500002069B84204D921782846FDF7CFFC05E0B0
:1035100021782846D4E90523FDF77EFDBDF800009B
:1035200000F0800000287CD005F1280000EB461454
:103530007100286830F8110048F60F7108407200D9
:10354000296821F81200A07AD0B92868B0F8501084
:10355000207801EBC000801C296801F5806131F8FA
:103560001000C0F30900E061E069E8B3B4F81CC0E2
:103570001FFA8CF3A2886169286802F08CF84EE08B
:1035800021784900286830F8110000F04000D0B1DF
:103590002868B0F85010207801EBC000801C296822
:1035A00001F5806131F81000C0F30900E061E069C5
:1035B00028B3B4F81CC01FFA8CF3E288616928684C
:1035C00002F069F81BE02868B0F85010207801EB91
:1035D000C000801D296801F5806131F81000C0F33A
:1035E0000900E061E06900E019E040B1B4F81CC0F6
:1035F0001FFA8CF322896169286802F04CF821785F
:103600004900286830F8110048F68F7108404CF2E4
:103610008001084322785200296821F812002868A6
:1036200000E01EE0B0F85010207801EBC000801CD4
:10363000296801F5806131F81000C0F30900E061EC
:10364000E169606908446061A06920B92178284671
:10365000FDF71EFC05E021782846D4E90523FDF797
:1036600049FD2868B0F84400019000F400400028AB
:103670007FF4EAADBDE8FC817047000010B5024858
:10368000FEF7F7FD10BD0000DC0100202DE9F04140
:1036900007460E461546012D01DCBDE8F0810022EB
:1036A00010210B48FDF7F4FA384600F013F8002417
:1036B00004E000F033F83055601CC4B2AC42F8DBD3
:1036C000012210210248FDF7E3FA00BFE5E7000000
:1036D0000008014001B5002210210548FDF7D8FA85
:1036E0000A23012269460348FEF7DAFF08BD0000FD
:1036F00000080140DC01002070B504462046FFF7B9
:10370000E9FF00F00BF80546012210210248FDF701
:10371000BFFA284670BD00000008014008B500202F
:103720000090002210210648FDF7B2FA0A23012278
:1037300069460448FEF78EFE9DF8000008BD0000B3
:1037400000080140DC01002070B504460D4600224F
:1037500010210848FDF79CFA44F08000FFF7BAFFFB
:103760002846FFF7B7FF012210210248FDF790FA23
:1037700070BD0000000801400146012070472DE99E
:10378000F04104460E4617461D464FF00008FDF76F
:1037900085FA8046002F3ED132E0681C78B32DB107
:1037A000FDF77CFAA0EB0800A84229D92068406800
:1037B00020F0E000216848602068006820F04000A8
:1037C00021680860A06AB0F5005F0DD100BF2068D5
:1037D000006820F40050216808602068006840F408
:1037E00000502168086000BF012084F8510000BF2C
:1037F000002084F8500000BF0320BDE8F081FFE7FF
:10380000206880683040B04201D1012000E00020F3
:103810000028C2D03BE030E0681C70B32DB1FDF74A
:103820003DFAA0EB0800A84227D92068406820F0A4
:10383000E000216848602068006820F040002168AE
:103840000860A06AB0F5005F0DD100BF2068006875
:1038500020F40050216808602068006840F400509F
:103860002168086000BF012084F8510000BF0020DB
:1038700084F8500000BF0320BFE720688068304014
:10388000B04201D1012000E000200028C4D1002076
:10389000B3E7704710B5FDF707FAFFF7B2F910BDAF
:1038A00010B594B001200A9000040B9000200C90F9
:1038B00001200E9002201190C10312914FF4E011EB
:1038C00013910AA8FEF798F808B1FDF73CF80F200D
:1038D000059002200690002007904FF48060089029
:1038E00000200990022105A8FDF7DAFE08B1FDF7D6
:1038F0002AF8102001900020049001A8FDF712FE84
:1039000008B1FDF720F8FEF717F80849B0FBF1F40D
:103910002046FFF75CF90420FFF744F90022114626
:10392000501EFDF742FA14B010BD0000A086010041
:103930001148006840F001000F49086008464068DF
:103940000E4908400C494860084600680C49084088
:10395000094908600846006820F48020086008468D
:10396000406820F4FE0048604FF41F008860C803E0
:103970000449086070470000001002400000FFF892
:10398000FFFFF6FE08ED00E010B50248FFF76FFA02
:1039900010BD00003402002000220268164B98423D
:1039A00008D0B0F1804F05D0144B984202D0144B90
:1039B000984203D122F070024B681A430E4B984292
:1039C00008D0B0F1804F05D00C4B984202D00C4B80
:1039D000984203D122F44072CB681A4302608B688C
:1039E000C3620B688362044B984201D10B69036385
:1039F0000123436170470000002C01400004004097
:103A00000008004030B50C460021816821F47F4158
:103A100042EA032525432943816030BD0A4600213F
:103A2000816821F0700142F00703194381607047FB
:103A300030B50B46144600210022026A056A25F0C3
:103A400001050562816921F0F00141EA041122F0CB
:103A50000A021A438161026230BD30B50B4614463A
:103A600000210022056A25F0100505628169026ABD
:103A700021F4704141EA043122F0A00242EA03122B
:103A80008161026230BD02460B46D2F81812D2F8AC
:103A9000180218B10020C1F8140270470220FCE798
:103AA00070B504460E46D4F818523146204600F050
:103AB000ADFCC5F80C02D4F8180248B1D5F80402E0
:103AC000D4F81C12CA6805F503719047002070BD38
:103AD0000220FCE770B504460E46002581212046F1
:103AE00000F0C2FB0121204600F0BEFB82212046EF
:103AF00000F0BAFBD4F8180250B1D4F81C12486890
:103B00008047D4F8180201F047F80020C4F81802E2
:103B1000284670BD70B50546D5F81842D5F81C0288
:103B200078B194F80002FF280BD094F8012294F8A1
:103B30000002D5F81C128B6821469847FF2084F8B4
:103B40000002002070BD000001460A2008800148E4
:103B500070470000C800002001464320088001484B
:103B600070470000500100200146432008800148B2
:103B7000704700000C0100200146432008800148E6
:103B800070470000940100202DE9F04104460F46E3
:103B90000026207C70B94FF4007302228121204658
:103BA00000F09AFC4FF4007302220121204600F03D
:103BB00093FC0BE0402302228121204600F08CFC84
:103BC000402302220121204600F086FC0823032224
:103BD0008221204600F080FC4FF4077000F0DEFFE9
:103BE000C4F81802D4F8180208B901261CE0D4F869
:103BF0001852D4F81C12086880470020C5F8140237
:103C0000C5F81802207C40B94FF40073012120460A
:103C1000D5F8042200F091FC06E040230121204663
:103C2000D5F8042200F089FC3046BDE8F08170B57B
:103C30000446D4F81852D4F8180298B1207C40B940
:103C40004FF4007301212046D5F8042200F075FCE2
:103C500006E0402301212046D5F8042200F06DFC47
:103C6000002070BD0220FCE70246022011B1C2F81C
:103C70001C12002070470246D2F81832C3F8041212
:103C80000020704710B50346D3F81842C4F8081254
:103C9000C4F81022002010BD70B505460C46D5F8BA
:103CA0001862207800F0600040B3202835D1E08809
:103CB000E0B1207800F0800060B1E2886078D5F84B
:103CC0001C128B6831469847E2883146284600F03E
:103CD000B9F812E0607886F80002A07986F801024F
:103CE000E2883146284600F08CF806E06078D5F886
:103CF0001C1200228B68214698470FE060780A2842
:103D000002D00B2807D105E001220649284600F021
:103D100099F800E000BF00BF00BF00BF00BF002057
:103D200070BD0000D701002070B50546D5F81842D7
:103D3000D5F8180290B1D4F8140268B90120C4F87B
:103D40001402B4F8100283B281212846D4F8082264
:103D500000F005FD002070BD0120FCE70220FAE71D
:103D600070B504460D46D4F8140229464268204630
:103D70009047002070BD70B504460D4694F8FC01D4
:103D8000022802D0032811D100E000BF6888012872
:103D90000BD10020C4F80402D4F81402294682682A
:103DA00020469047204600F05EF804E02946204671
:103DB00000F01BF800BF00BF70BD70B506460C4692
:103DC00015462B4622460021304600F0B6FB002067
:103DD00070BD70B506460C4615462B46224600219E
:103DE000304600F0BCFC002070BD70B504460D46A6
:103DF0008021204600F069FC0021204600F065FC8F
:103E000070BD70B504460E4615460320C4F8F40193
:103E10004FF484700551001D05512B463246002198
:103E2000204600F08AFB002070BD10B50446052036
:103E3000C4F8F40100231A461946204600F07DFB21
:103E4000002010BD70B504460E4615460220C4F889
:103E5000F401A561E5612B4632460021204600F0C1
:103E60007EFC002070BD10B504460420C4F8F401A7
:103E700000231A461946204600F071FC002010BDB0
:103E800070B505460C462DB92246064906A000F03D
:103E900087F904E02246034903A000F081F90148B4
:103EA00070BD0000E00B002043444320436F6E666A
:103EB0006967000002461220088001487047000030
:103EC000A800002070B505460C462DB922460649CB
:103ED00006A000F065F904E02246034903A000F0C3
:103EE0005FF9014870BD0000E00B0020434443200F
:103EF000496E7465726661636500000002460420C5
:103F00000880014870470000BC00002070B50546DD
:103F10000C462246024903A000F042F9004870BD59
:103F2000E00B002053544D6963726F656C656374D8
:103F3000726F6E696373000070B505460C462DB94B
:103F40002246064906A000F02BF904E02246034968
:103F500003A000F025F9014870BD0000E00B00202F
:103F600053544D3332205669727475616C20436F1F
:103F70006D506F727400000070B505460C462DB987
:103F80002246064906A000F00BF904E02246034948
:103F900003A000F005F9014870BD0000E00B00200F
:103FA00030303030303030303030314100000000BF
:103FB00070B504460D46E888012804D029462046FD
:103FC000FFF713FF1BE094F8FC01022802D003283E
:103FD0000FD108E00020A060012204F10801204672
:103FE000FFF730FF0AE00122211D2046FFF72AFFDC
:103FF00004E029462046FFF7F8FE00BF00BF70BD71
:10400000F8B504460E467088001208287FD2DFE813
:1040100000F07E040C207E7E5F6D207CD4F81012B0
:104020000A6869469047054676E0207C40B9D4F896
:104030001402816A6846884705460221697007E0D4
:10404000D4F81402C16A684688470546022169709F
:1040500062E0B078062834D2DFE800F0030B131BCF
:10406000232B207CD4F810124A68694690470546F5
:104070002CE0207CD4F810128A68694690470546E7
:1040800024E0207CD4F81012CA686946904705469F
:104090001CE0207CD4F810120A6969469047054656
:1040A00014E0207CD4F810124A696946904705460E
:1040B0000CE0207CD4F810128A69694690470546C6
:1040C00004E031462046FFF790FEF8BD00BF23E034
:1040D000207C30B9D4F81402416B68468847054605
:1040E0001AE031462046FFF780FEEEE7207C48B913
:1040F000D4F81402016B68468847054607216970A9
:104100000AE004E031462046FFF76FFEDDE7314666
:104110002046FFF76AFED8E700BFBDF8000088B16F
:10412000F08878B1F088BDF80010884202DDBDF853
:10413000000000E0F0880090BDF8002029462046ED
:10414000FFF780FE00BFC0E70146002002E0421CEE
:10415000D0B2491C0A78002AF9D1704770B50446DC
:104160000D4694F8FC01022802D0032811D100E08A
:1041700000BF0120E060D4F8040218B1E06840F00C
:104180000200E060022204F10C012046FFF75AFE13
:1041900004E029462046FFF728FE00BF00BF70BD9F
:1041A0002DE9F04104460D4617460026FCB1204695
:1041B000FFF7CAFF022101EB400038803A78304611
:1041C000711CCEB22A5403223046711CCEB22A543E
:1041D0000AE014F8012B3046711CCEB22A5400229A
:1041E0003046711CCEB22A5420780028F1D1BDE8A7
:1041F000F08170B504460D4616460CB9022070BD1C
:10420000D4F8140210B10020C4F814020DB1C4F89F
:104210001052012084F8FC012670204600F000F9BD
:104220000020ECE72DE9F04104460D46002600276A
:104230002946D4F82002FCF779FE064636B1012E55
:1042400006D0022E06D0032E08D105E0002707E095
:10425000022705E0012703E0022701E0022700BF53
:1042600000BF3846BDE8F0812DE9F04104460D4617
:10427000002600272946D4F82002FCF725FE064632
:1042800036B1012E06D0022E06D0032E08D105E04D
:10429000002707E0022705E0012703E0022701E0ED
:1042A000022700BF00BF3846BDE8F0812DE9F0418C
:1042B00004460E461746002E54D104F11405D4F8D6
:1042C000F401022843D1D5E90201884210D9D5E989
:1042D0000201401AA860288982B239462046FFF7B9
:1042E00078FD00231A461946204600F026F92EE0F4
:1042F000E9686868B0FBF1F201FB1200B8B9E9683F
:104300006868884213D36868D4F8F81188420ED2DE
:10431000002211462046FFF75CFD0020C4F8F8019A
:1043200000231A461946204600F007F90FE0D4F89A
:104330001402C06840B194F8FC01032804D1D4F8F9
:104340001402C168204688472046FFF76EFD94F8A6
:104350000002012814D1204600F04EFA002084F813
:1043600000020DE0D4F81402406948B194F8FC0151
:10437000032805D1D4F814023146426920469047FB
:104380000020BDE8F0812DE9F04105460E461746B4
:104390005EBB05F58274D5F8F401032833D1D4E966
:1043A0000201884210D9D4E90201401AA060D4E980
:1043B0000201884201D2A06800E0E06882B239467A
:1043C0002846FFF7FAFC1EE0D5F81402006940B158
:1043D00095F8FC01032804D1D5F814020169284698
:1043E00088472846FFF73FFD0DE0D5F814028069A5
:1043F00048B195F8FC01032805D1D5F814023146DF
:104400008269284690470020BDE8F08170B50446D7
:104410000D462946D4F82002FCF7B9FD70BD000016
:1044200010B504461E48C0F81C44C4F820021D48BC
:104430001B49086008204860022119488160032157
:10444000C16000218161C1610162FCF73BFF08B1DD
:10445000FCF779FA04F50874182300221146206845
:10446000FCF7F6FC5823002280212068FCF7F0FCC2
:10447000C023002281212068FCF7EAFC4FF48873F6
:10448000002201212068FCF7E3FC2068A4F50874F1
:104490004FF4807300228221FCF7DAFC002010BD6B
:1044A000A0050020005C004010B50246D2F8203282
:1044B00001F08000802807D101F07F0403F128007B
:1044C00000EB4410807810BD01F07F0403F502700A
:1044D00000EB44108078F6E72DE9F04704460F46DC
:1044E00015461E464FF00008C1462B463246394657
:1044F000D4F82002FCF755FD8046B8F1000F09D032
:10450000B8F1010F09D0B8F1020F09D0B8F1030FCB
:104510000CD108E04FF000090BE04FF0020908E071
:104520004FF0010905E04FF0020902E04FF00209E7
:1045300000BF00BF4846BDE8F0872DE9F0470446BC
:104540000D4616461F464FF00008C1463B46324610
:104550002946D4F82002FCF75FFD8046B8F1000F31
:1045600009D0B8F1010F09D0B8F1020F09D0B8F1A4
:10457000030F0CD108E04FF000090BE04FF00209E7
:1045800008E04FF0010905E04FF0020902E04FF0AA
:10459000020900BF00BF4846BDE8F08710B50446D9
:1045A0004023002211462046FFF796FF40214FF49A
:1045B000887001514023002280212046FFF78CFFA4
:1045C00040212162012084F8FC01D4F8180228B1AE
:1045D0002179D4F81402426820469047002010BD8B
:1045E000014691F8FD0181F8FC010020704710B5EB
:1045F000044694F8FC01032808D1D4F81402C069D9
:1046000020B1D4F81402C16920468847002010BDAB
:1046100002461174002070472DE9F04104460D4612
:10462000002600272946D4F82002FCF726FF06467C
:1046300036B1012E06D0022E06D0032E08D105E099
:10464000002707E0022705E0012703E0022701E039
:10465000022700BF00BF3846BDE8F08170B50446B0
:104660000D46294604F5027000F0AAF80120C4F8AE
:10467000F40140F20E20005BC4F8F80194F808023F
:1046800000F01F0020B1012808D0022812D10BE051
:1046900004F50271204600F076F913E004F502718A
:1046A000204600F054FA0DE004F50271204600F0B7
:1046B000A3F907E094F8080200F08001204600F01A
:1046C00004F800BF00BF002070BD2DE9F041044692
:1046D0000D46002600272946D4F82002FCF7D1FC1D
:1046E000064636B1012E06D0022E06D0032E08D182
:1046F00005E0002707E0022705E0012703E0022785
:1047000001E0022700BF00BF3846BDE8F08170B568
:10471000044600250026D4F82002FCF7D2FE054608
:1047200035B1012D06D0022D06D0032D08D105E0AC
:10473000002607E0022605E0012603E0022601E04C
:10474000022600BF00BF304670BD014691F8FC0153
:1047500081F8FD01042081F8FC01002070472DE95B
:10476000F04704460D4616461F464FF00008C14666
:104770003B4632462946D4F82002FCF7BBFC804673
:10478000B8F1000F09D0B8F1010F09D0B8F1020F4C
:1047900009D0B8F1030F0CD108E04FF000090BE08D
:1047A0004FF0020908E04FF0010905E04FF002095F
:1047B00002E04FF0020900BF00BF4846BDE8F087A5
:1047C0000A7802704A7842708B78CA7803EB02222A
:1047D00042800B794A7903EB022282808B79CA7975
:1047E00003EB0222C28070470246002011B1C2F8DA
:1047F000141200E00220704701460020704770B597
:1048000004460D46A888F8B9E888E8B9A87800F009
:104810007F0694F8FC01032804D129462046FFF7BF
:10482000E4FA15E084F8FE6131462046FFF7F4FE15
:104830002046FFF718FB1EB1022084F8FC0107E0B8
:10484000012084F8FC0103E029462046FFF7CDFA59
:1048500070BD70B504460D460226D4F8140238B176
:10486000D4F81402294602682046904700B9002671
:10487000304670BD70B504460D46A87834490870BE
:1048800008460078012804DD29462046FFF7ADFAE6
:104890005BE094F8FC01022802D003284FD11CE011
:1048A0002B480078A8B12A4800786060032084F87B
:1048B000FC01274801782046FFF7CBFF022804D1EE
:1048C00029462046FFF791FA70BD2046FFF7CBFA44
:1048D00002E02046FFF7C7FA36E01D48007870B9BD
:1048E000022084F8FC011A480078606018480178BA
:1048F0002046FFF735FA2046FFF7B5FA1EE01449C7
:1049000009786068884216D021792046FFF728FA96
:104910000F48007860600E4801782046FFF799FF45
:10492000022804D129462046FFF75FFACCE720464B
:10493000FFF799FA02E02046FFF795FA04E02946CE
:104940002046FFF752FA00BF00BF00BFBCE70000DF
:10495000D801002070B504460D46688801280AD1A8
:10496000C4F80402D4F8140229468268204690470D
:104970002046FFF778FA70BD10B504462046FFF7D1
:10498000C6FE002010BD70B505460C4600266078B6
:104990000A2829D2DFE800F01923281E280A052852
:1049A000140F21462846FFF72BFB22E0214628461C
:1049B000FFF725FF1DE021462846FFF75BFF18E0C3
:1049C00021462846FFF7F4FA13E021462846FFF770
:1049D000C5FB0EE021462846FFF7BCFF09E0214653
:1049E0002846FFF7C8F904E021462846FFF7FDF9FD
:1049F00000BF00BF304670BD2DE9F04105460E46B0
:104A00004FF000083479307800F06000202808D199
:104A1000D5F8140231468268284690470020BDE848
:104A2000F0817078002855D001282AD003287AD147
:104A300095F8FC01022802D003281BD107E02CB115
:104A4000802C03D021462846FFF73FFE17E07088F0
:104A500030B92CB1802C03D021462846FFF735FE13
:104A6000D5F8140231468268284690472846FFF759
:104A7000FAF904E031462846FFF7B7F900BF00BF56
:104A800062E095F8FC01022802D003281BD107E060
:104A90002CB1802C03D021462846FFF716FE17E0E4
:104AA000708878B904F07F0048B121462846FFF7A6
:104AB000B9FBD5F81402314682682846904728464B
:104AC000FFF7D1F904E031462846FFF78EF900BF21
:104AD00000BF39E095F8FC01022802D003282BD151
:104AE00007E004F07F0018B121462846FFF7EDFDEE
:104AF00027E004F08000802806D104F07F0105F152
:104B0000140000EB011005E004F07F0105F5827050
:104B100000EB0110074621462846FFF7C5FC18B1F7
:104B20000120386002E00EE00020386002223946A1
:104B30002846FFF787F904E031462846FFF755F984
:104B400000BF00BF00E000BF00BF404667E770B590
:104B500004460D46002694F8FC01032814D1287958
:104B600001280CDCD4F814022946826820469047BC
:104B7000E88840B93EB92046FFF775F903E02946B9
:104B80002046FFF732F904E029462046FFF72DF9C9
:104B900000BF00BF002070BD704700000146014803
:104BA00070470000C009002010B50246C87830B137
:104BB00001282CD0022810D0032836D119E008781B
:104BC000400032F8100048F68F13184040F400708F
:104BD0000B785B0022F8130028E00878400032F8D8
:104BE000100048F68F1318400B785B0022F8130072
:104BF0001CE00878400032F8100048F68F13184087
:104C000040F4C0600B785B0022F813000EE00878D7
:104C1000400032F8100048F68F13184040F48060CE
:104C20000B785B0022F8130000E000BF00BF08789B
:104C3000400032F8100048F68F73184048F28003A5
:104C400018430B7818435B0022F81300887A002879
:104C50007DD1487898B3888840104400B2F850302D
:104C6000087803EBC00002F5806343F81040087831
:104C7000400032F8100000F0400068B108784000B1
:104C800032F8100048F68F73184048F2C0031843FA
:104C90000B785B0022F813000B785B0032F81330BE
:104CA00048F6BF7403EA040080F0200040F400439B
:104CB00043F080030C78640022F8143047E1FFE7EA
:104CC000888840104400B2F85030087803EBC000E8
:104CD000001D02F5806343F81040B2F85040087898
:104CE00004EBC000801D1C4604EB40030C693E2C05
:104CF00010D90C69C4F34F100C7C04F01F040CB9DC
:104D0000441EA0B24FF6FF7404EA802444F4004429
:104D10001C600DE00C69C4F34F000C7C04F001042E
:104D20000CB1441CA0B24FF6FF7404EA80241C604E
:104D30000878400032F8100000F4804078B108781C
:104D4000400032F8100048F68F73184000E01BE076
:104D50004CF2800318430B785B0022F813000B78A9
:104D60005B0032F813304BF68F7403EA040080F4D2
:104D7000805080F4005040F4004343F080030C78EE
:104D8000640022F81430E2E00878400032F81000A5
:104D900040F4807048F68F73184048F2800318433F
:104DA0000B785B0022F81300C88840104400B2F86A
:104DB0005030087803EBC00002F5806343F81040E0
:104DC000088940104400B2F85030087803EBC00066
:104DD000001D02F5806343F810404878F0BB087866
:104DE000400032F8100000F4804068B108784000BC
:104DF00032F8100048F68F7318404CF280031843C5
:104E00000B785B0022F813000878400032F810009D
:104E100000F0400068B10878400032F8100048F611
:104E20008F73184048F2C00318430B785B0022F8D8
:104E300013000878400032F8100048F68F731840CD
:104E400048F2C00318430B785B0022F813000B787C
:104E50005B0032F813304BF68F7400E01EE003EA7B
:104E6000040080F4805080F4005040F4004343F08C
:104E700080030C78640022F814300B785B0032F861
:104E8000133048F6BF7403EA040040F4004343F0D3
:104E900080030C78640022F8143058E00878400051
:104EA00032F8100000F4804068B10878400032F811
:104EB000100048F68F7318404CF2800318430B78AB
:104EC0005B0022F813000878400032F8100000F070
:104ED000400068B10878400032F8100048F68F733F
:104EE000184048F2C00318430B785B0022F8130007
:104EF0000878400032F8100048F68F7318404CF2E2
:104F0000800318430B785B0022F813000B785B00DA
:104F100032F8133048F6BF7403EA040040F400434B
:104F200043F080030C78640022F814300B785B00A7
:104F300032F813304BF68F7403EA040040F4004358
:104F400043F080030C78640022F8143000BF002086
:104F500010BD10B50446002010BD10B50246887A79
:104F600000284DD1487828B30878400032F8100066
:104F700000F0400068B10878400032F8100048F6B0
:104F80008F73184048F2C00318430B785B0022F877
:104F900013000B785B0032F8133048F6BF7403EA55
:104FA000040040F4004343F080030C78640022F8CE
:104FB0001430DAE00878400032F8100000F4804045
:104FC00068B10878400032F8100048F68F73184036
:104FD0004CF2800318430B785B0022F813000B7827
:104FE0005B0032F813304BF68F7403EA040040F490
:104FF000004343F080030C78640022F81430B4E0DE
:105000004878002858D10878400032F8100000F4A1
:10501000804068B10878400032F8100048F68F737D
:1050200018404CF2800318430B785B0022F8130001
:105030000878400032F8100000F0400068B10878AD
:10504000400032F8100048F68F73184048F2C00351
:1050500018430B785B0022F813000878400032F800
:10506000100048F68F73184048F2C00318430B78BD
:105070005B0022F813000B785B0032F813304BF61C
:105080008F7403EA040040F4004343F080030C787B
:10509000640022F814300B785B0032F8133048F6C5
:1050A000BF7403EA040040F4004343F080030C782B
:1050B000640022F8143058E00878400032F81000FC
:1050C00000F4804068B10878400032F8100048F6DB
:1050D0008F7318404CF2800318430B785B0022F862
:1050E00013000878400032F8100000F0400068B16A
:1050F0000878400032F8100048F68F73184048F2E4
:10510000C00318430B785B0022F8130008784000B6
:1051100032F8100048F68F7318404CF280031843A1
:105120000B785B0022F813000B785B0032F8133029
:1051300048F6BF7403EA040040F4004343F08003E0
:105140000C78640022F814300B785B0032F81330CE
:105150004BF68F7403EA040040F4004343F08003ED
:105160000C78640022F8143000BF002010BD014606
:105170000020704701460020704710B5044601200A
:1051800024F8400F00202080A0802082403C10BDE9
:10519000014600224FF43D42B1F840009043A1F88F
:1051A00040000020704702460020704710B50246BC
:1051B000487848B30878400032F8100000F040000A
:1051C00068B10878400032F8100048F68F73184034
:1051D00048F2C00318430B785B0022F813000B78E9
:1051E0005B0032F8133048F6BF7403EA040080F025
:1051F000100080F0200040F4004343F080030C785E
:10520000640022F8143029E00878400032F81000D9
:1052100000F4804068B10878400032F8100048F689
:105220008F7318404CF2800318430B785B0022F810
:1052300013000B785B0032F813304BF68F7403EADF
:10524000040080F4805080F4005040F4004343F0A8
:1052500080030C78640022F8143000BF002010BDD9
:1052600010B502460878A0B90B785B0032F813300D
:105270004BF6BF7403EA040080F4805080F0100005
:1052800040F4004343F080030C78640022F81430AB
:1052900027E0487890B10B785B0032F8133048F67D
:1052A000BF7403EA040080F0100040F4004343F0B0
:1052B00080030C78640022F8143012E00B785B0055
:1052C00032F813304BF68F7403EA040080F48050F8
:1052D00040F4004343F080030C78640022F814305B
:1052E00000BF002010BDF0B506460C460027A5699A
:1052F000607801287CD12169A069884204D9256998
:10530000A069401BA06102E0A5690020A061A07A0D
:1053100080B9ABB2A2883046616900F0BCF9B6F83A
:105320005010207801EBC000801C06F5806141F828
:105330001050A1E02078400036F8100000F0400046
:10534000C0B3607838BBB6F85020207802EBC000BC
:10535000801D06F5806202EB40013E2D0ED9C5F39B
:105360004F1005F01F020AB9421E90B24FF6FF72AD
:1053700002EA802242F400420A600BE0C5F34F00CB
:1053800005F001020AB1421C90B24FF6FF7202EA28
:1053900080220A600CE06078012809D1B6F850102C
:1053A000207801EBC000801C06F5806141F81050A8
:1053B000278939E0FFE7607840BBB6F850202078B5
:1053C00002EBC000801C06F5806202EB40013E2D1E
:1053D0000FD9C5F34F1005F01F020AB9421E90B253
:1053E0004FF6FF7202EA802242F400420A600CE0AB
:1053F00057E0C5F34F0005F001020AB1421C90B21C
:105400004FF6FF7202EA80220A600CE06078012801
:1054100009D1B6F85010207801EBC000801C06F5C9
:10542000806141F81050E788ABB23A463046616976
:1054300000F031F9607870B92078400036F810003B
:1054400048F68F71084048F2C001084321784900AE
:1054500026F8110010E0607801280DD12078400076
:1054600036F8100048F68F7108404CF2800108436E
:105470002178490026F811002178490036F81110EA
:1054800048F6BF7201EA020080F0100080F02000B0
:1054900040F4004141F080012278520026F81210B9
:1054A000B8E02169A069884204D92569A069401B38
:1054B000A06102E0A5690020A061A07A38BBB6F81F
:1054C0005020207802EBC000801D06F5806202EBC0
:1054D00040013E2D0ED9C5F34F1005F01F020AB949
:1054E000421E90B24FF6FF7202EA802242F400425E
:1054F0000A600BE0C5F34F0005F001020AB1421C3F
:1055000090B24FF6FF7202EA80220A606DE0607886
:1055100038BBB6F85020207802EBC000801C06F59E
:10552000806202EB40013E2D0ED9C5F34F1005F00D
:105530001F020AB9421E90B24FF6FF7202EA8022A1
:1055400042F400420A600BE0C5F34F0005F001028F
:105550000AB1421C90B24FF6FF7202EA80220A6042
:105560000CE06078012809D1B6F85010207801EBE2
:10557000C000801C06F5806141F81050607838BB8F
:10558000B6F85020207802EBC000801D06F580623E
:1055900002EB40013E2D0ED9C5F34F1005F01F025E
:1055A0000AB9421E90B24FF6FF7202EA802242F41C
:1055B00000420A600BE0C5F34F0005F001020AB19A
:1055C000421C90B24FF6FF7202EA80220A600CE0A1
:1055D0006078012809D1B6F85010207801EBC0009E
:1055E000801C06F5806141F810502178490036F89A
:1055F00011104BF68F7201EA020080F4805080F4A3
:10560000005040F4004141F080012278520026F819
:10561000121000BF0020F0BD014600224FF43D42B1
:10562000B1F840001043A1F840000020704700008E
:1056300010B50248FBF794FD10BD0000A005002046
:1056400010B50248FBF78CFD10BD0000A00500203E
:1056500001460020B1F844007047F0B55F1C7E1091
:105660000024002500EB420707F58065344605E07D
:1056700035F804CB21F801CB491C641E002CF7D16E
:10568000F0BD024600207047024611B98020A2F802
:105690004C00002070472DE9F041044603F1010859
:1056A0004FEA68070025AC460026002004EB4208BC
:1056B00008F580603D460BE091F800C0491C91F868
:1056C00000804CEA082620F8026B801C491C6D1EE5
:1056D000002DF1D1BDE8F08100BFFEE730380A2887
:1056E00001D20120704700207047FBF7E5FAFEF772
:1056F000D7F8FDF78DFCFDF70DFDFDF761FDFDF71A
:105700002BFD01E000F002F8FCE7000088B0002764
:105710000020F8490880F8490870F849087001200D
:10572000F74908700020F7490870F7490870F749F1
:1057300008700920F64908700020F6490870002218
:105740000221F548FBF7A4FA0A20FBF7FEF8012234
:105750000221F148FBF79CFA00200CE0002107E051
:10576000002200EB4003DFF8B4C363445A54491CE1
:105770000329F5D3401C0328F0D30020DF4908702B
:105780000024002500BF002600F0C4FA00F058FBFA
:10579000A9E2DA48007830B1012839D0062855D07E
:1057A000072834D174E03A46791C8FB2DCA1E14875
:1057B000FAF732FD4FF44870FBF7C7F800F050FCE1
:1057C00000F07EFB00F054FC044600F049FC00F0C1
:1057D00027FC00F04DFC0546D6482B462246D6A1B4
:1057E000CDE9006003A8FAF717FD03A8FAF74BFE0E
:1057F0008046414603A8FBF789F800F031FC00F031
:105800001FFB00F035FC06460020BC49087069E229
:1058100000F0CEFBC8B10122D5A1D648FAF752FE5E
:1058200098B900F083FB8146D24AD3A1D748FAF752
:10583000F3FCD648FAF727FE80464146D348FBF7EB
:1058400065F80120AD49087000BF4BE2FBF726FA6E
:10585000CF490860CF480278CFA1B648FAF7DCFC00
:10586000CC480078401CCB490870084600780428D2
:1058700001D10120087000F023FB0A20FBF765F836
:1058800000F0CEFB07209D49087000F0D9FA29E20C
:105890000020C449086019E22021C348FBF7F0F951
:1058A00001280AD100224103C048FBF7F1F9BD48A5
:1058B0000068401CBB49086009E001225103BB4855
:1058C000FBF7E6F9B7480068401CB6490860B548E0
:1058D0000068B74988426DD1AE480078401E012863
:1058E0003FD100208D49B34A12788854B1480078DE
:1058F000401CB049087008460078032801D10020F8
:105900000870AD480068401CAB490860834890F9B6
:10591000082090F9071090F90600804B93F90530A4
:10592000CDE90330CDE905127C4890F904007B49AC
:1059300091F90310794A92F90220CDE900210290F1
:10594000764890F9013090F900209C498F48FAF789
:1059500063FC8E48FAF797FD804641468B48FAF77C
:10596000D5FF8C480078401E022824D100216B48C6
:10597000C01C934A1278815491480078401C904989
:10598000087008460078032801D1002008708A4872
:105990000068401C884908608A4802788AA17B48D0
:1059A000FAF73AFC7948FAF76EFD804641467748A7
:1059B000FAF7ACFF48E077480078401EF0BB0021C2
:1059C0005648801D834A1278815482480078401CD2
:1059D0008049087008460078032801D1002008702B
:1059E00075480068401C744908604C4890F90800EC
:1059F0004A4991F90710494A92F90620474B93F911
:105A00000530CDE90332CDE90510444890F9040092
:105A1000424991F90310414A92F90220CDE900214F
:105A200002903E4890F9013090F9002063495748B0
:105A3000FAF7F2FB5548FAF726FD00E004E080464D
:105A400041465248FAF762FF00F0B2FA002850D0FF
:105A5000012261A14748FAF735FDE8BB00F066FA7C
:105A600080465348401C4F4908605C480068401C11
:105A70005A49086029484F49097800F801804D4883
:105A80000078401C4B49087008460078032801D173
:105A900000200870214890F90800204991F907106A
:105AA0001E4A92F906201D4B93F90530CDE90332C9
:105AB000CDE90510194890F90400184991F903102F
:105AC000164A92F90220CDE900210290134890F97C
:105AD000013090F9002000E082E038492B48FAF7C5
